{
	"AnimalList.sol": {
		"AnimalFactory": {
			"abi": [
				{
					"inputs": [],
					"name": "birds",
					"outputs": [
						{
							"internalType": "contract Birds",
							"name": "",
							"type": "address"
						}
					],
					"stateMutability": "view",
					"type": "function"
				},
				{
					"inputs": [],
					"name": "cows",
					"outputs": [
						{
							"internalType": "contract Cows",
							"name": "",
							"type": "address"
						}
					],
					"stateMutability": "view",
					"type": "function"
				},
				{
					"inputs": [],
					"name": "createAnimals",
					"outputs": [],
					"stateMutability": "nonpayable",
					"type": "function"
				}
			],
			"devdoc": {
				"kind": "dev",
				"methods": {},
				"version": 1
			},
			"evm": {
				"assembly": "    /* \"AnimalList.sol\":138:309  contract AnimalFactory{... */\n  mstore(0x40, 0x80)\n  callvalue\n  dup1\n  iszero\n  tag_1\n  jumpi\n  revert(0x00, 0x00)\ntag_1:\n  pop\n  dataSize(sub_0)\n  dup1\n  dataOffset(sub_0)\n  0x00\n  codecopy\n  0x00\n  return\nstop\n\nsub_0: assembly {\n        /* \"AnimalList.sol\":138:309  contract AnimalFactory{... */\n      mstore(0x40, 0x80)\n      callvalue\n      dup1\n      iszero\n      tag_1\n      jumpi\n      revert(0x00, 0x00)\n    tag_1:\n      pop\n      jumpi(tag_2, lt(calldatasize, 0x04))\n      shr(0xe0, calldataload(0x00))\n      dup1\n      0x0821bb9b\n      eq\n      tag_3\n      jumpi\n      dup1\n      0x1cff4042\n      eq\n      tag_4\n      jumpi\n      dup1\n      0x4b164f01\n      eq\n      tag_5\n      jumpi\n    tag_2:\n      revert(0x00, 0x00)\n        /* \"AnimalList.sol\":213:307  function createAnimals() public{... */\n    tag_3:\n      tag_6\n      tag_7\n      jump\t// in\n    tag_6:\n      stop\n        /* \"AnimalList.sol\":190:206  Cows public cows */\n    tag_4:\n      tag_8\n      tag_9\n      jump\t// in\n    tag_8:\n      mload(0x40)\n      tag_10\n      swap2\n      swap1\n      tag_11\n      jump\t// in\n    tag_10:\n      mload(0x40)\n      dup1\n      swap2\n      sub\n      swap1\n      return\n        /* \"AnimalList.sol\":166:184  Birds public birds */\n    tag_5:\n      tag_12\n      tag_13\n      jump\t// in\n    tag_12:\n      mload(0x40)\n      tag_14\n      swap2\n      swap1\n      tag_15\n      jump\t// in\n    tag_14:\n      mload(0x40)\n      dup1\n      swap2\n      sub\n      swap1\n      return\n        /* \"AnimalList.sol\":213:307  function createAnimals() public{... */\n    tag_7:\n        /* \"AnimalList.sol\":262:273  new Birds() */\n      mload(0x40)\n      tag_17\n      swap1\n      tag_18\n      jump\t// in\n    tag_17:\n      mload(0x40)\n      dup1\n      swap2\n      sub\n      swap1\n      0x00\n      create\n      dup1\n      iszero\n      dup1\n      iszero\n      tag_19\n      jumpi\n      returndatacopy(0x00, 0x00, returndatasize)\n      revert(0x00, returndatasize)\n    tag_19:\n      pop\n        /* \"AnimalList.sol\":254:259  birds */\n      0x00\n      0x00\n        /* \"AnimalList.sol\":254:273  birds = new Birds() */\n      0x0100\n      exp\n      dup2\n      sload\n      dup2\n      0xffffffffffffffffffffffffffffffffffffffff\n      mul\n      not\n      and\n      swap1\n      dup4\n      0xffffffffffffffffffffffffffffffffffffffff\n      and\n      mul\n      or\n      swap1\n      sstore\n      pop\n        /* \"AnimalList.sol\":290:300  new Cows() */\n      mload(0x40)\n      tag_20\n      swap1\n      tag_21\n      jump\t// in\n    tag_20:\n      mload(0x40)\n      dup1\n      swap2\n      sub\n      swap1\n      0x00\n      create\n      dup1\n      iszero\n      dup1\n      iszero\n      tag_22\n      jumpi\n      returndatacopy(0x00, 0x00, returndatasize)\n      revert(0x00, returndatasize)\n    tag_22:\n      pop\n        /* \"AnimalList.sol\":283:287  cows */\n      0x01\n      0x00\n        /* \"AnimalList.sol\":283:300  cows = new Cows() */\n      0x0100\n      exp\n      dup2\n      sload\n      dup2\n      0xffffffffffffffffffffffffffffffffffffffff\n      mul\n      not\n      and\n      swap1\n      dup4\n      0xffffffffffffffffffffffffffffffffffffffff\n      and\n      mul\n      or\n      swap1\n      sstore\n      pop\n        /* \"AnimalList.sol\":213:307  function createAnimals() public{... */\n      jump\t// out\n        /* \"AnimalList.sol\":190:206  Cows public cows */\n    tag_9:\n      0x01\n      0x00\n      swap1\n      sload\n      swap1\n      0x0100\n      exp\n      swap1\n      div\n      0xffffffffffffffffffffffffffffffffffffffff\n      and\n      dup2\n      jump\t// out\n        /* \"AnimalList.sol\":166:184  Birds public birds */\n    tag_13:\n      0x00\n      0x00\n      swap1\n      sload\n      swap1\n      0x0100\n      exp\n      swap1\n      div\n      0xffffffffffffffffffffffffffffffffffffffff\n      and\n      dup2\n      jump\t// out\n    tag_18:\n      dataSize(sub_0)\n      dup1\n      dataOffset(sub_0)\n      dup4\n      codecopy\n      add\n      swap1\n      jump\t// out\n    tag_21:\n      dataSize(sub_1)\n      dup1\n      dataOffset(sub_1)\n      dup4\n      codecopy\n      add\n      swap1\n      jump\t// out\n        /* \"#utility.yul\":7:133   */\n    tag_23:\n        /* \"#utility.yul\":44:51   */\n      0x00\n        /* \"#utility.yul\":84:126   */\n      0xffffffffffffffffffffffffffffffffffffffff\n        /* \"#utility.yul\":77:82   */\n      dup3\n        /* \"#utility.yul\":73:127   */\n      and\n        /* \"#utility.yul\":62:127   */\n      swap1\n      pop\n        /* \"#utility.yul\":7:133   */\n      swap2\n      swap1\n      pop\n      jump\t// out\n        /* \"#utility.yul\":139:199   */\n    tag_24:\n        /* \"#utility.yul\":167:170   */\n      0x00\n        /* \"#utility.yul\":188:193   */\n      dup2\n        /* \"#utility.yul\":181:193   */\n      swap1\n      pop\n        /* \"#utility.yul\":139:199   */\n      swap2\n      swap1\n      pop\n      jump\t// out\n        /* \"#utility.yul\":205:347   */\n    tag_25:\n        /* \"#utility.yul\":255:264   */\n      0x00\n        /* \"#utility.yul\":288:341   */\n      tag_35\n        /* \"#utility.yul\":306:340   */\n      tag_36\n        /* \"#utility.yul\":315:339   */\n      tag_37\n        /* \"#utility.yul\":333:338   */\n      dup5\n        /* \"#utility.yul\":315:339   */\n      tag_23\n      jump\t// in\n    tag_37:\n        /* \"#utility.yul\":306:340   */\n      tag_24\n      jump\t// in\n    tag_36:\n        /* \"#utility.yul\":288:341   */\n      tag_23\n      jump\t// in\n    tag_35:\n        /* \"#utility.yul\":275:341   */\n      swap1\n      pop\n        /* \"#utility.yul\":205:347   */\n      swap2\n      swap1\n      pop\n      jump\t// out\n        /* \"#utility.yul\":353:479   */\n    tag_26:\n        /* \"#utility.yul\":403:412   */\n      0x00\n        /* \"#utility.yul\":436:473   */\n      tag_39\n        /* \"#utility.yul\":467:472   */\n      dup3\n        /* \"#utility.yul\":436:473   */\n      tag_25\n      jump\t// in\n    tag_39:\n        /* \"#utility.yul\":423:473   */\n      swap1\n      pop\n        /* \"#utility.yul\":353:479   */\n      swap2\n      swap1\n      pop\n      jump\t// out\n        /* \"#utility.yul\":485:621   */\n    tag_27:\n        /* \"#utility.yul\":545:554   */\n      0x00\n        /* \"#utility.yul\":578:615   */\n      tag_41\n        /* \"#utility.yul\":609:614   */\n      dup3\n        /* \"#utility.yul\":578:615   */\n      tag_26\n      jump\t// in\n    tag_41:\n        /* \"#utility.yul\":565:615   */\n      swap1\n      pop\n        /* \"#utility.yul\":485:621   */\n      swap2\n      swap1\n      pop\n      jump\t// out\n        /* \"#utility.yul\":627:778   */\n    tag_28:\n        /* \"#utility.yul\":724:771   */\n      tag_43\n        /* \"#utility.yul\":765:770   */\n      dup2\n        /* \"#utility.yul\":724:771   */\n      tag_27\n      jump\t// in\n    tag_43:\n        /* \"#utility.yul\":719:722   */\n      dup3\n        /* \"#utility.yul\":712:772   */\n      mstore\n        /* \"#utility.yul\":627:778   */\n      pop\n      pop\n      jump\t// out\n        /* \"#utility.yul\":784:1026   */\n    tag_11:\n        /* \"#utility.yul\":887:891   */\n      0x00\n        /* \"#utility.yul\":925:927   */\n      0x20\n        /* \"#utility.yul\":914:923   */\n      dup3\n        /* \"#utility.yul\":910:928   */\n      add\n        /* \"#utility.yul\":902:928   */\n      swap1\n      pop\n        /* \"#utility.yul\":938:1019   */\n      tag_45\n        /* \"#utility.yul\":1016:1017   */\n      0x00\n        /* \"#utility.yul\":1005:1014   */\n      dup4\n        /* \"#utility.yul\":1001:1018   */\n      add\n        /* \"#utility.yul\":992:998   */\n      dup5\n        /* \"#utility.yul\":938:1019   */\n      tag_28\n      jump\t// in\n    tag_45:\n        /* \"#utility.yul\":784:1026   */\n      swap3\n      swap2\n      pop\n      pop\n      jump\t// out\n        /* \"#utility.yul\":1032:1170   */\n    tag_29:\n        /* \"#utility.yul\":1094:1103   */\n      0x00\n        /* \"#utility.yul\":1127:1164   */\n      tag_47\n        /* \"#utility.yul\":1158:1163   */\n      dup3\n        /* \"#utility.yul\":1127:1164   */\n      tag_26\n      jump\t// in\n    tag_47:\n        /* \"#utility.yul\":1114:1164   */\n      swap1\n      pop\n        /* \"#utility.yul\":1032:1170   */\n      swap2\n      swap1\n      pop\n      jump\t// out\n        /* \"#utility.yul\":1176:1331   */\n    tag_30:\n        /* \"#utility.yul\":1275:1324   */\n      tag_49\n        /* \"#utility.yul\":1318:1323   */\n      dup2\n        /* \"#utility.yul\":1275:1324   */\n      tag_29\n      jump\t// in\n    tag_49:\n        /* \"#utility.yul\":1270:1273   */\n      dup3\n        /* \"#utility.yul\":1263:1325   */\n      mstore\n        /* \"#utility.yul\":1176:1331   */\n      pop\n      pop\n      jump\t// out\n        /* \"#utility.yul\":1337:1583   */\n    tag_15:\n        /* \"#utility.yul\":1442:1446   */\n      0x00\n        /* \"#utility.yul\":1480:1482   */\n      0x20\n        /* \"#utility.yul\":1469:1478   */\n      dup3\n        /* \"#utility.yul\":1465:1483   */\n      add\n        /* \"#utility.yul\":1457:1483   */\n      swap1\n      pop\n        /* \"#utility.yul\":1493:1576   */\n      tag_51\n        /* \"#utility.yul\":1573:1574   */\n      0x00\n        /* \"#utility.yul\":1562:1571   */\n      dup4\n        /* \"#utility.yul\":1558:1575   */\n      add\n        /* \"#utility.yul\":1549:1555   */\n      dup5\n        /* \"#utility.yul\":1493:1576   */\n      tag_30\n      jump\t// in\n    tag_51:\n        /* \"#utility.yul\":1337:1583   */\n      swap3\n      swap2\n      pop\n      pop\n      jump\t// out\n    stop\n\n    sub_0: assembly {\n            /* \"AnimalList.sol\":98:136  contract Birds {... */\n          mstore(0x40, 0x80)\n            /* \"AnimalList.sol\":119:134  constructor(){} */\n          callvalue\n          dup1\n          iszero\n          tag_1\n          jumpi\n          revert(0x00, 0x00)\n        tag_1:\n          pop\n            /* \"AnimalList.sol\":98:136  contract Birds {... */\n          dataSize(sub_0)\n          dup1\n          dataOffset(sub_0)\n          0x00\n          codecopy\n          0x00\n          return\n        stop\n\n        sub_0: assembly {\n                /* \"AnimalList.sol\":98:136  contract Birds {... */\n              mstore(0x40, 0x80)\n              revert(0x00, 0x00)\n\n            auxdata: 0xa26469706673582212204bf97204c62062fd5e0c1c1fc53407147f0014514d51c016216e13d5def3770d64736f6c634300081e0033\n        }\n    }\n\n    sub_1: assembly {\n            /* \"AnimalList.sol\":59:96  contract Cows {... */\n          mstore(0x40, 0x80)\n            /* \"AnimalList.sol\":79:94  constructor(){} */\n          callvalue\n          dup1\n          iszero\n          tag_1\n          jumpi\n          revert(0x00, 0x00)\n        tag_1:\n          pop\n            /* \"AnimalList.sol\":59:96  contract Cows {... */\n          dataSize(sub_0)\n          dup1\n          dataOffset(sub_0)\n          0x00\n          codecopy\n          0x00\n          return\n        stop\n\n        sub_0: assembly {\n                /* \"AnimalList.sol\":59:96  contract Cows {... */\n              mstore(0x40, 0x80)\n              revert(0x00, 0x00)\n\n            auxdata: 0xa26469706673582212208b848a4ac13a5d506899398bf454c5e168b7daefe3bf792ba4b662c90bc8c0ba64736f6c634300081e0033\n        }\n    }\n\n    auxdata: 0xa2646970667358221220d32735a3f9c224271c0e01a61b3d58657825bfb21d4133f802ff02478abdf39364736f6c634300081e0033\n}\n",
				"bytecode": {
					"linkReferences": {},
					"object": "6080604052348015600e575f5ffd5b506103678061001c5f395ff3fe608060405234801561000f575f5ffd5b506004361061003f575f3560e01c80630821bb9b146100435780631cff40421461004d5780634b164f011461006b575b5f5ffd5b61004b610089565b005b610055610154565b604051610062919061022f565b60405180910390f35b610073610179565b6040516100809190610268565b60405180910390f35b6040516100959061019d565b604051809103905ff0801580156100ae573d5f5f3e3d5ffd5b505f5f6101000a81548173ffffffffffffffffffffffffffffffffffffffff021916908373ffffffffffffffffffffffffffffffffffffffff1602179055506040516100f9906101a9565b604051809103905ff080158015610112573d5f5f3e3d5ffd5b5060015f6101000a81548173ffffffffffffffffffffffffffffffffffffffff021916908373ffffffffffffffffffffffffffffffffffffffff160217905550565b60015f9054906101000a900473ffffffffffffffffffffffffffffffffffffffff1681565b5f5f9054906101000a900473ffffffffffffffffffffffffffffffffffffffff1681565b60588061028283390190565b6058806102da83390190565b5f73ffffffffffffffffffffffffffffffffffffffff82169050919050565b5f819050919050565b5f6101f76101f26101ed846101b5565b6101d4565b6101b5565b9050919050565b5f610208826101dd565b9050919050565b5f610219826101fe565b9050919050565b6102298161020f565b82525050565b5f6020820190506102425f830184610220565b92915050565b5f610252826101fe565b9050919050565b61026281610248565b82525050565b5f60208201905061027b5f830184610259565b9291505056fe6080604052348015600e575f5ffd5b50603e80601a5f395ff3fe60806040525f5ffdfea26469706673582212204bf97204c62062fd5e0c1c1fc53407147f0014514d51c016216e13d5def3770d64736f6c634300081e00336080604052348015600e575f5ffd5b50603e80601a5f395ff3fe60806040525f5ffdfea26469706673582212208b848a4ac13a5d506899398bf454c5e168b7daefe3bf792ba4b662c90bc8c0ba64736f6c634300081e0033a2646970667358221220d32735a3f9c224271c0e01a61b3d58657825bfb21d4133f802ff02478abdf39364736f6c634300081e0033",
					"opcodes": "PUSH1 0x80 PUSH1 0x40 MSTORE CALLVALUE DUP1 ISZERO PUSH1 0xE JUMPI PUSH0 PUSH0 REVERT JUMPDEST POP PUSH2 0x367 DUP1 PUSH2 0x1C PUSH0 CODECOPY PUSH0 RETURN INVALID PUSH1 0x80 PUSH1 0x40 MSTORE CALLVALUE DUP1 ISZERO PUSH2 0xF JUMPI PUSH0 PUSH0 REVERT JUMPDEST POP PUSH1 0x4 CALLDATASIZE LT PUSH2 0x3F JUMPI PUSH0 CALLDATALOAD PUSH1 0xE0 SHR DUP1 PUSH4 0x821BB9B EQ PUSH2 0x43 JUMPI DUP1 PUSH4 0x1CFF4042 EQ PUSH2 0x4D JUMPI DUP1 PUSH4 0x4B164F01 EQ PUSH2 0x6B JUMPI JUMPDEST PUSH0 PUSH0 REVERT JUMPDEST PUSH2 0x4B PUSH2 0x89 JUMP JUMPDEST STOP JUMPDEST PUSH2 0x55 PUSH2 0x154 JUMP JUMPDEST PUSH1 0x40 MLOAD PUSH2 0x62 SWAP2 SWAP1 PUSH2 0x22F JUMP JUMPDEST PUSH1 0x40 MLOAD DUP1 SWAP2 SUB SWAP1 RETURN JUMPDEST PUSH2 0x73 PUSH2 0x179 JUMP JUMPDEST PUSH1 0x40 MLOAD PUSH2 0x80 SWAP2 SWAP1 PUSH2 0x268 JUMP JUMPDEST PUSH1 0x40 MLOAD DUP1 SWAP2 SUB SWAP1 RETURN JUMPDEST PUSH1 0x40 MLOAD PUSH2 0x95 SWAP1 PUSH2 0x19D JUMP JUMPDEST PUSH1 0x40 MLOAD DUP1 SWAP2 SUB SWAP1 PUSH0 CREATE DUP1 ISZERO DUP1 ISZERO PUSH2 0xAE JUMPI RETURNDATASIZE PUSH0 PUSH0 RETURNDATACOPY RETURNDATASIZE PUSH0 REVERT JUMPDEST POP PUSH0 PUSH0 PUSH2 0x100 EXP DUP2 SLOAD DUP2 PUSH20 0xFFFFFFFFFFFFFFFFFFFFFFFFFFFFFFFFFFFFFFFF MUL NOT AND SWAP1 DUP4 PUSH20 0xFFFFFFFFFFFFFFFFFFFFFFFFFFFFFFFFFFFFFFFF AND MUL OR SWAP1 SSTORE POP PUSH1 0x40 MLOAD PUSH2 0xF9 SWAP1 PUSH2 0x1A9 JUMP JUMPDEST PUSH1 0x40 MLOAD DUP1 SWAP2 SUB SWAP1 PUSH0 CREATE DUP1 ISZERO DUP1 ISZERO PUSH2 0x112 JUMPI RETURNDATASIZE PUSH0 PUSH0 RETURNDATACOPY RETURNDATASIZE PUSH0 REVERT JUMPDEST POP PUSH1 0x1 PUSH0 PUSH2 0x100 EXP DUP2 SLOAD DUP2 PUSH20 0xFFFFFFFFFFFFFFFFFFFFFFFFFFFFFFFFFFFFFFFF MUL NOT AND SWAP1 DUP4 PUSH20 0xFFFFFFFFFFFFFFFFFFFFFFFFFFFFFFFFFFFFFFFF AND MUL OR SWAP1 SSTORE POP JUMP JUMPDEST PUSH1 0x1 PUSH0 SWAP1 SLOAD SWAP1 PUSH2 0x100 EXP SWAP1 DIV PUSH20 0xFFFFFFFFFFFFFFFFFFFFFFFFFFFFFFFFFFFFFFFF AND DUP2 JUMP JUMPDEST PUSH0 PUSH0 SWAP1 SLOAD SWAP1 PUSH2 0x100 EXP SWAP1 DIV PUSH20 0xFFFFFFFFFFFFFFFFFFFFFFFFFFFFFFFFFFFFFFFF AND DUP2 JUMP JUMPDEST PUSH1 0x58 DUP1 PUSH2 0x282 DUP4 CODECOPY ADD SWAP1 JUMP JUMPDEST PUSH1 0x58 DUP1 PUSH2 0x2DA DUP4 CODECOPY ADD SWAP1 JUMP JUMPDEST PUSH0 PUSH20 0xFFFFFFFFFFFFFFFFFFFFFFFFFFFFFFFFFFFFFFFF DUP3 AND SWAP1 POP SWAP2 SWAP1 POP JUMP JUMPDEST PUSH0 DUP2 SWAP1 POP SWAP2 SWAP1 POP JUMP JUMPDEST PUSH0 PUSH2 0x1F7 PUSH2 0x1F2 PUSH2 0x1ED DUP5 PUSH2 0x1B5 JUMP JUMPDEST PUSH2 0x1D4 JUMP JUMPDEST PUSH2 0x1B5 JUMP JUMPDEST SWAP1 POP SWAP2 SWAP1 POP JUMP JUMPDEST PUSH0 PUSH2 0x208 DUP3 PUSH2 0x1DD JUMP JUMPDEST SWAP1 POP SWAP2 SWAP1 POP JUMP JUMPDEST PUSH0 PUSH2 0x219 DUP3 PUSH2 0x1FE JUMP JUMPDEST SWAP1 POP SWAP2 SWAP1 POP JUMP JUMPDEST PUSH2 0x229 DUP2 PUSH2 0x20F JUMP JUMPDEST DUP3 MSTORE POP POP JUMP JUMPDEST PUSH0 PUSH1 0x20 DUP3 ADD SWAP1 POP PUSH2 0x242 PUSH0 DUP4 ADD DUP5 PUSH2 0x220 JUMP JUMPDEST SWAP3 SWAP2 POP POP JUMP JUMPDEST PUSH0 PUSH2 0x252 DUP3 PUSH2 0x1FE JUMP JUMPDEST SWAP1 POP SWAP2 SWAP1 POP JUMP JUMPDEST PUSH2 0x262 DUP2 PUSH2 0x248 JUMP JUMPDEST DUP3 MSTORE POP POP JUMP JUMPDEST PUSH0 PUSH1 0x20 DUP3 ADD SWAP1 POP PUSH2 0x27B PUSH0 DUP4 ADD DUP5 PUSH2 0x259 JUMP JUMPDEST SWAP3 SWAP2 POP POP JUMP INVALID PUSH1 0x80 PUSH1 0x40 MSTORE CALLVALUE DUP1 ISZERO PUSH1 0xE JUMPI PUSH0 PUSH0 REVERT JUMPDEST POP PUSH1 0x3E DUP1 PUSH1 0x1A PUSH0 CODECOPY PUSH0 RETURN INVALID PUSH1 0x80 PUSH1 0x40 MSTORE PUSH0 PUSH0 REVERT INVALID LOG2 PUSH5 0x6970667358 0x22 SLT KECCAK256 0x4B EXTDELEGATECALL PUSH19 0x4C62062FD5E0C1C1FC53407147F0014514D51 0xC0 AND 0x21 PUSH15 0x13D5DEF3770D64736F6C634300081E STOP CALLER PUSH1 0x80 PUSH1 0x40 MSTORE CALLVALUE DUP1 ISZERO PUSH1 0xE JUMPI PUSH0 PUSH0 REVERT JUMPDEST POP PUSH1 0x3E DUP1 PUSH1 0x1A PUSH0 CODECOPY PUSH0 RETURN INVALID PUSH1 0x80 PUSH1 0x40 MSTORE PUSH0 PUSH0 REVERT INVALID LOG2 PUSH5 0x6970667358 0x22 SLT KECCAK256 DUP12 DUP5 DUP11 BLOBBASEFEE 0xC1 GASPRICE TSTORE POP PUSH9 0x99398BF454C5E168B7 0xDA 0xEF CALLF 0xBF79 0x2B LOG4 0xB6 PUSH3 0xC90BC8 0xC0 0xBA PUSH5 0x736F6C6343 STOP ADDMOD 0x1E STOP CALLER LOG2 PUSH5 0x6970667358 0x22 SLT KECCAK256 0xD3 0x27 CALLDATALOAD LOG3 EXTDELEGATECALL 0xC2 0x24 0x27 SHR 0xE ADD 0xA6 SHL RETURNDATASIZE PC PUSH6 0x7825BFB21D41 CALLER EXTCALL MUL SELFDESTRUCT MUL SELFBALANCE DUP11 0xBD RETURN SWAP4 PUSH5 0x736F6C6343 STOP ADDMOD 0x1E STOP CALLER "
				},
				"gasEstimates": {
					"creation": {
						"codeDepositCost": "174200",
						"executionCost": "218",
						"totalCost": "174418"
					},
					"external": {
						"birds()": "infinite",
						"cows()": "infinite",
						"createAnimals()": "infinite"
					}
				},
				"methodIdentifiers": {
					"birds()": "4b164f01",
					"cows()": "1cff4042",
					"createAnimals()": "0821bb9b"
				}
			},
			"storageLayout": {
				"storage": [
					{
						"astId": 14,
						"contract": "AnimalList.sol:AnimalFactory",
						"label": "birds",
						"offset": 0,
						"slot": "0",
						"type": "t_contract(Birds)11"
					},
					{
						"astId": 17,
						"contract": "AnimalList.sol:AnimalFactory",
						"label": "cows",
						"offset": 0,
						"slot": "1",
						"type": "t_contract(Cows)6"
					}
				],
				"types": {
					"t_contract(Birds)11": {
						"encoding": "inplace",
						"label": "contract Birds",
						"numberOfBytes": "20"
					},
					"t_contract(Cows)6": {
						"encoding": "inplace",
						"label": "contract Cows",
						"numberOfBytes": "20"
					}
				}
			},
			"userdoc": {
				"kind": "user",
				"methods": {},
				"version": 1
			}
		}
	}
}