{
	"data": {
		"bytecode": {
			"linkReferences": {},
			"object": "6080604052348015600e575f5ffd5b506106fe8061001c5f395ff3fe608060405234801561000f575f5ffd5b5060043610610034575f3560e01c80631f6c5b98146100385780635139bfff14610068575b5f5ffd5b610052600480360381019061004d91906101bd565b610084565b60405161005f9190610258565b60405180910390f35b610082600480360381019061007d91906103a4565b61012e565b005b5f8181548110610092575f80fd5b905f5260205f20015f91509050805f0180546100ad90610418565b80601f01602080910402602001604051908101604052809291908181526020018280546100d990610418565b80156101245780601f106100fb57610100808354040283529160200191610124565b820191905f5260205f20905b81548152906001019060200180831161010757829003601f168201915b5050505050905081565b5f604051806020016040528083815250908060018154018082558091505060019003905f5260205f20015f909190919091505f820151815f01908161017391906105f9565b50505050565b5f604051905090565b5f5ffd5b5f5ffd5b5f819050919050565b61019c8161018a565b81146101a6575f5ffd5b50565b5f813590506101b781610193565b92915050565b5f602082840312156101d2576101d1610182565b5b5f6101df848285016101a9565b91505092915050565b5f81519050919050565b5f82825260208201905092915050565b8281835e5f83830152505050565b5f601f19601f8301169050919050565b5f61022a826101e8565b61023481856101f2565b9350610244818560208601610202565b61024d81610210565b840191505092915050565b5f6020820190508181035f8301526102708184610220565b905092915050565b5f5ffd5b5f5ffd5b7f4e487b71000000000000000000000000000000000000000000000000000000005f52604160045260245ffd5b6102b682610210565b810181811067ffffffffffffffff821117156102d5576102d4610280565b5b80604052505050565b5f6102e7610179565b90506102f382826102ad565b919050565b5f67ffffffffffffffff82111561031257610311610280565b5b61031b82610210565b9050602081019050919050565b828183375f83830152505050565b5f610348610343846102f8565b6102de565b9050828152602081018484840111156103645761036361027c565b5b61036f848285610328565b509392505050565b5f82601f83011261038b5761038a610278565b5b813561039b848260208601610336565b91505092915050565b5f602082840312156103b9576103b8610182565b5b5f82013567ffffffffffffffff8111156103d6576103d5610186565b5b6103e284828501610377565b91505092915050565b7f4e487b71000000000000000000000000000000000000000000000000000000005f52602260045260245ffd5b5f600282049050600182168061042f57607f821691505b602082108103610442576104416103eb565b5b50919050565b5f819050815f5260205f209050919050565b5f6020601f8301049050919050565b5f82821b905092915050565b5f600883026104a47fffffffffffffffffffffffffffffffffffffffffffffffffffffffffffffffff82610469565b6104ae8683610469565b95508019841693508086168417925050509392505050565b5f819050919050565b5f6104e96104e46104df8461018a565b6104c6565b61018a565b9050919050565b5f819050919050565b610502836104cf565b61051661050e826104f0565b848454610475565b825550505050565b5f5f905090565b61052d61051e565b6105388184846104f9565b505050565b5f5b8281101561055e576105535f828401610525565b60018101905061053f565b505050565b601f8211156105b157828211156105b05761057d81610448565b6105868361045a565b61058f8561045a565b602086101561059c575f90505b8083016105ab8284038261053d565b505050505b5b505050565b5f82821c905092915050565b5f6105d15f19846008026105b6565b1980831691505092915050565b5f6105e983836105c2565b9150826002028217905092915050565b610602826101e8565b67ffffffffffffffff81111561061b5761061a610280565b5b6106258254610418565b610630828285610563565b5f60209050601f831160018114610661575f841561064f578287015190505b61065985826105de565b8655506106c0565b601f19841661066f86610448565b5f5b8281101561069657848901518255600182019150602085019450602081019050610671565b868310156106b357848901516106af601f8916826105c2565b8355505b6001600288020188555050505b50505050505056fea26469706673582212202ecfa482a34829ebfef7e723429709fb5fc5206fd969dc9d9d31c335c79b35fb64736f6c63430008220033",
			"opcodes": "PUSH1 0x80 PUSH1 0x40 MSTORE CALLVALUE DUP1 ISZERO PUSH1 0xE JUMPI PUSH0 PUSH0 REVERT JUMPDEST POP PUSH2 0x6FE DUP1 PUSH2 0x1C PUSH0 CODECOPY PUSH0 RETURN INVALID PUSH1 0x80 PUSH1 0x40 MSTORE CALLVALUE DUP1 ISZERO PUSH2 0xF JUMPI PUSH0 PUSH0 REVERT JUMPDEST POP PUSH1 0x4 CALLDATASIZE LT PUSH2 0x34 JUMPI PUSH0 CALLDATALOAD PUSH1 0xE0 SHR DUP1 PUSH4 0x1F6C5B98 EQ PUSH2 0x38 JUMPI DUP1 PUSH4 0x5139BFFF EQ PUSH2 0x68 JUMPI JUMPDEST PUSH0 PUSH0 REVERT JUMPDEST PUSH2 0x52 PUSH1 0x4 DUP1 CALLDATASIZE SUB DUP2 ADD SWAP1 PUSH2 0x4D SWAP2 SWAP1 PUSH2 0x1BD JUMP JUMPDEST PUSH2 0x84 JUMP JUMPDEST PUSH1 0x40 MLOAD PUSH2 0x5F SWAP2 SWAP1 PUSH2 0x258 JUMP JUMPDEST PUSH1 0x40 MLOAD DUP1 SWAP2 SUB SWAP1 RETURN JUMPDEST PUSH2 0x82 PUSH1 0x4 DUP1 CALLDATASIZE SUB DUP2 ADD SWAP1 PUSH2 0x7D SWAP2 SWAP1 PUSH2 0x3A4 JUMP JUMPDEST PUSH2 0x12E JUMP JUMPDEST STOP JUMPDEST PUSH0 DUP2 DUP2 SLOAD DUP2 LT PUSH2 0x92 JUMPI PUSH0 DUP1 REVERT JUMPDEST SWAP1 PUSH0 MSTORE PUSH1 0x20 PUSH0 KECCAK256 ADD PUSH0 SWAP2 POP SWAP1 POP DUP1 PUSH0 ADD DUP1 SLOAD PUSH2 0xAD SWAP1 PUSH2 0x418 JUMP JUMPDEST DUP1 PUSH1 0x1F ADD PUSH1 0x20 DUP1 SWAP2 DIV MUL PUSH1 0x20 ADD PUSH1 0x40 MLOAD SWAP1 DUP2 ADD PUSH1 0x40 MSTORE DUP1 SWAP3 SWAP2 SWAP1 DUP2 DUP2 MSTORE PUSH1 0x20 ADD DUP3 DUP1 SLOAD PUSH2 0xD9 SWAP1 PUSH2 0x418 JUMP JUMPDEST DUP1 ISZERO PUSH2 0x124 JUMPI DUP1 PUSH1 0x1F LT PUSH2 0xFB JUMPI PUSH2 0x100 DUP1 DUP4 SLOAD DIV MUL DUP4 MSTORE SWAP2 PUSH1 0x20 ADD SWAP2 PUSH2 0x124 JUMP JUMPDEST DUP3 ADD SWAP2 SWAP1 PUSH0 MSTORE PUSH1 0x20 PUSH0 KECCAK256 SWAP1 JUMPDEST DUP2 SLOAD DUP2 MSTORE SWAP1 PUSH1 0x1 ADD SWAP1 PUSH1 0x20 ADD DUP1 DUP4 GT PUSH2 0x107 JUMPI DUP3 SWAP1 SUB PUSH1 0x1F AND DUP3 ADD SWAP2 JUMPDEST POP POP POP POP POP SWAP1 POP DUP2 JUMP JUMPDEST PUSH0 PUSH1 0x40 MLOAD DUP1 PUSH1 0x20 ADD PUSH1 0x40 MSTORE DUP1 DUP4 DUP2 MSTORE POP SWAP1 DUP1 PUSH1 0x1 DUP2 SLOAD ADD DUP1 DUP3 SSTORE DUP1 SWAP2 POP POP PUSH1 0x1 SWAP1 SUB SWAP1 PUSH0 MSTORE PUSH1 0x20 PUSH0 KECCAK256 ADD PUSH0 SWAP1 SWAP2 SWAP1 SWAP2 SWAP1 SWAP2 POP PUSH0 DUP3 ADD MLOAD DUP2 PUSH0 ADD SWAP1 DUP2 PUSH2 0x173 SWAP2 SWAP1 PUSH2 0x5F9 JUMP JUMPDEST POP POP POP POP JUMP JUMPDEST PUSH0 PUSH1 0x40 MLOAD SWAP1 POP SWAP1 JUMP JUMPDEST PUSH0 PUSH0 REVERT JUMPDEST PUSH0 PUSH0 REVERT JUMPDEST PUSH0 DUP2 SWAP1 POP SWAP2 SWAP1 POP JUMP JUMPDEST PUSH2 0x19C DUP2 PUSH2 0x18A JUMP JUMPDEST DUP2 EQ PUSH2 0x1A6 JUMPI PUSH0 PUSH0 REVERT JUMPDEST POP JUMP JUMPDEST PUSH0 DUP2 CALLDATALOAD SWAP1 POP PUSH2 0x1B7 DUP2 PUSH2 0x193 JUMP JUMPDEST SWAP3 SWAP2 POP POP JUMP JUMPDEST PUSH0 PUSH1 0x20 DUP3 DUP5 SUB SLT ISZERO PUSH2 0x1D2 JUMPI PUSH2 0x1D1 PUSH2 0x182 JUMP JUMPDEST JUMPDEST PUSH0 PUSH2 0x1DF DUP5 DUP3 DUP6 ADD PUSH2 0x1A9 JUMP JUMPDEST SWAP2 POP POP SWAP3 SWAP2 POP POP JUMP JUMPDEST PUSH0 DUP2 MLOAD SWAP1 POP SWAP2 SWAP1 POP JUMP JUMPDEST PUSH0 DUP3 DUP3 MSTORE PUSH1 0x20 DUP3 ADD SWAP1 POP SWAP3 SWAP2 POP POP JUMP JUMPDEST DUP3 DUP2 DUP4 MCOPY PUSH0 DUP4 DUP4 ADD MSTORE POP POP POP JUMP JUMPDEST PUSH0 PUSH1 0x1F NOT PUSH1 0x1F DUP4 ADD AND SWAP1 POP SWAP2 SWAP1 POP JUMP JUMPDEST PUSH0 PUSH2 0x22A DUP3 PUSH2 0x1E8 JUMP JUMPDEST PUSH2 0x234 DUP2 DUP6 PUSH2 0x1F2 JUMP JUMPDEST SWAP4 POP PUSH2 0x244 DUP2 DUP6 PUSH1 0x20 DUP7 ADD PUSH2 0x202 JUMP JUMPDEST PUSH2 0x24D DUP2 PUSH2 0x210 JUMP JUMPDEST DUP5 ADD SWAP2 POP POP SWAP3 SWAP2 POP POP JUMP JUMPDEST PUSH0 PUSH1 0x20 DUP3 ADD SWAP1 POP DUP2 DUP2 SUB PUSH0 DUP4 ADD MSTORE PUSH2 0x270 DUP2 DUP5 PUSH2 0x220 JUMP JUMPDEST SWAP1 POP SWAP3 SWAP2 POP POP JUMP JUMPDEST PUSH0 PUSH0 REVERT JUMPDEST PUSH0 PUSH0 REVERT JUMPDEST PUSH32 0x4E487B7100000000000000000000000000000000000000000000000000000000 PUSH0 MSTORE PUSH1 0x41 PUSH1 0x4 MSTORE PUSH1 0x24 PUSH0 REVERT JUMPDEST PUSH2 0x2B6 DUP3 PUSH2 0x210 JUMP JUMPDEST DUP2 ADD DUP2 DUP2 LT PUSH8 0xFFFFFFFFFFFFFFFF DUP3 GT OR ISZERO PUSH2 0x2D5 JUMPI PUSH2 0x2D4 PUSH2 0x280 JUMP JUMPDEST JUMPDEST DUP1 PUSH1 0x40 MSTORE POP POP POP JUMP JUMPDEST PUSH0 PUSH2 0x2E7 PUSH2 0x179 JUMP JUMPDEST SWAP1 POP PUSH2 0x2F3 DUP3 DUP3 PUSH2 0x2AD JUMP JUMPDEST SWAP2 SWAP1 POP JUMP JUMPDEST PUSH0 PUSH8 0xFFFFFFFFFFFFFFFF DUP3 GT ISZERO PUSH2 0x312 JUMPI PUSH2 0x311 PUSH2 0x280 JUMP JUMPDEST JUMPDEST PUSH2 0x31B DUP3 PUSH2 0x210 JUMP JUMPDEST SWAP1 POP PUSH1 0x20 DUP2 ADD SWAP1 POP SWAP2 SWAP1 POP JUMP JUMPDEST DUP3 DUP2 DUP4 CALLDATACOPY PUSH0 DUP4 DUP4 ADD MSTORE POP POP POP JUMP JUMPDEST PUSH0 PUSH2 0x348 PUSH2 0x343 DUP5 PUSH2 0x2F8 JUMP JUMPDEST PUSH2 0x2DE JUMP JUMPDEST SWAP1 POP DUP3 DUP2 MSTORE PUSH1 0x20 DUP2 ADD DUP5 DUP5 DUP5 ADD GT ISZERO PUSH2 0x364 JUMPI PUSH2 0x363 PUSH2 0x27C JUMP JUMPDEST JUMPDEST PUSH2 0x36F DUP5 DUP3 DUP6 PUSH2 0x328 JUMP JUMPDEST POP SWAP4 SWAP3 POP POP POP JUMP JUMPDEST PUSH0 DUP3 PUSH1 0x1F DUP4 ADD SLT PUSH2 0x38B JUMPI PUSH2 0x38A PUSH2 0x278 JUMP JUMPDEST JUMPDEST DUP2 CALLDATALOAD PUSH2 0x39B DUP5 DUP3 PUSH1 0x20 DUP7 ADD PUSH2 0x336 JUMP JUMPDEST SWAP2 POP POP SWAP3 SWAP2 POP POP JUMP JUMPDEST PUSH0 PUSH1 0x20 DUP3 DUP5 SUB SLT ISZERO PUSH2 0x3B9 JUMPI PUSH2 0x3B8 PUSH2 0x182 JUMP JUMPDEST JUMPDEST PUSH0 DUP3 ADD CALLDATALOAD PUSH8 0xFFFFFFFFFFFFFFFF DUP2 GT ISZERO PUSH2 0x3D6 JUMPI PUSH2 0x3D5 PUSH2 0x186 JUMP JUMPDEST JUMPDEST PUSH2 0x3E2 DUP5 DUP3 DUP6 ADD PUSH2 0x377 JUMP JUMPDEST SWAP2 POP POP SWAP3 SWAP2 POP POP JUMP JUMPDEST PUSH32 0x4E487B7100000000000000000000000000000000000000000000000000000000 PUSH0 MSTORE PUSH1 0x22 PUSH1 0x4 MSTORE PUSH1 0x24 PUSH0 REVERT JUMPDEST PUSH0 PUSH1 0x2 DUP3 DIV SWAP1 POP PUSH1 0x1 DUP3 AND DUP1 PUSH2 0x42F JUMPI PUSH1 0x7F DUP3 AND SWAP2 POP JUMPDEST PUSH1 0x20 DUP3 LT DUP2 SUB PUSH2 0x442 JUMPI PUSH2 0x441 PUSH2 0x3EB JUMP JUMPDEST JUMPDEST POP SWAP2 SWAP1 POP JUMP JUMPDEST PUSH0 DUP2 SWAP1 POP DUP2 PUSH0 MSTORE PUSH1 0x20 PUSH0 KECCAK256 SWAP1 POP SWAP2 SWAP1 POP JUMP JUMPDEST PUSH0 PUSH1 0x20 PUSH1 0x1F DUP4 ADD DIV SWAP1 POP SWAP2 SWAP1 POP JUMP JUMPDEST PUSH0 DUP3 DUP3 SHL SWAP1 POP SWAP3 SWAP2 POP POP JUMP JUMPDEST PUSH0 PUSH1 0x8 DUP4 MUL PUSH2 0x4A4 PUSH32 0xFFFFFFFFFFFFFFFFFFFFFFFFFFFFFFFFFFFFFFFFFFFFFFFFFFFFFFFFFFFFFFFF DUP3 PUSH2 0x469 JUMP JUMPDEST PUSH2 0x4AE DUP7 DUP4 PUSH2 0x469 JUMP JUMPDEST SWAP6 POP DUP1 NOT DUP5 AND SWAP4 POP DUP1 DUP7 AND DUP5 OR SWAP3 POP POP POP SWAP4 SWAP3 POP POP POP JUMP JUMPDEST PUSH0 DUP2 SWAP1 POP SWAP2 SWAP1 POP JUMP JUMPDEST PUSH0 PUSH2 0x4E9 PUSH2 0x4E4 PUSH2 0x4DF DUP5 PUSH2 0x18A JUMP JUMPDEST PUSH2 0x4C6 JUMP JUMPDEST PUSH2 0x18A JUMP JUMPDEST SWAP1 POP SWAP2 SWAP1 POP JUMP JUMPDEST PUSH0 DUP2 SWAP1 POP SWAP2 SWAP1 POP JUMP JUMPDEST PUSH2 0x502 DUP4 PUSH2 0x4CF JUMP JUMPDEST PUSH2 0x516 PUSH2 0x50E DUP3 PUSH2 0x4F0 JUMP JUMPDEST DUP5 DUP5 SLOAD PUSH2 0x475 JUMP JUMPDEST DUP3 SSTORE POP POP POP POP JUMP JUMPDEST PUSH0 PUSH0 SWAP1 POP SWAP1 JUMP JUMPDEST PUSH2 0x52D PUSH2 0x51E JUMP JUMPDEST PUSH2 0x538 DUP2 DUP5 DUP5 PUSH2 0x4F9 JUMP JUMPDEST POP POP POP JUMP JUMPDEST PUSH0 JUMPDEST DUP3 DUP2 LT ISZERO PUSH2 0x55E JUMPI PUSH2 0x553 PUSH0 DUP3 DUP5 ADD PUSH2 0x525 JUMP JUMPDEST PUSH1 0x1 DUP2 ADD SWAP1 POP PUSH2 0x53F JUMP JUMPDEST POP POP POP JUMP JUMPDEST PUSH1 0x1F DUP3 GT ISZERO PUSH2 0x5B1 JUMPI DUP3 DUP3 GT ISZERO PUSH2 0x5B0 JUMPI PUSH2 0x57D DUP2 PUSH2 0x448 JUMP JUMPDEST PUSH2 0x586 DUP4 PUSH2 0x45A JUMP JUMPDEST PUSH2 0x58F DUP6 PUSH2 0x45A JUMP JUMPDEST PUSH1 0x20 DUP7 LT ISZERO PUSH2 0x59C JUMPI PUSH0 SWAP1 POP JUMPDEST DUP1 DUP4 ADD PUSH2 0x5AB DUP3 DUP5 SUB DUP3 PUSH2 0x53D JUMP JUMPDEST POP POP POP POP JUMPDEST JUMPDEST POP POP POP JUMP JUMPDEST PUSH0 DUP3 DUP3 SHR SWAP1 POP SWAP3 SWAP2 POP POP JUMP JUMPDEST PUSH0 PUSH2 0x5D1 PUSH0 NOT DUP5 PUSH1 0x8 MUL PUSH2 0x5B6 JUMP JUMPDEST NOT DUP1 DUP4 AND SWAP2 POP POP SWAP3 SWAP2 POP POP JUMP JUMPDEST PUSH0 PUSH2 0x5E9 DUP4 DUP4 PUSH2 0x5C2 JUMP JUMPDEST SWAP2 POP DUP3 PUSH1 0x2 MUL DUP3 OR SWAP1 POP SWAP3 SWAP2 POP POP JUMP JUMPDEST PUSH2 0x602 DUP3 PUSH2 0x1E8 JUMP JUMPDEST PUSH8 0xFFFFFFFFFFFFFFFF DUP2 GT ISZERO PUSH2 0x61B JUMPI PUSH2 0x61A PUSH2 0x280 JUMP JUMPDEST JUMPDEST PUSH2 0x625 DUP3 SLOAD PUSH2 0x418 JUMP JUMPDEST PUSH2 0x630 DUP3 DUP3 DUP6 PUSH2 0x563 JUMP JUMPDEST PUSH0 PUSH1 0x20 SWAP1 POP PUSH1 0x1F DUP4 GT PUSH1 0x1 DUP2 EQ PUSH2 0x661 JUMPI PUSH0 DUP5 ISZERO PUSH2 0x64F JUMPI DUP3 DUP8 ADD MLOAD SWAP1 POP JUMPDEST PUSH2 0x659 DUP6 DUP3 PUSH2 0x5DE JUMP JUMPDEST DUP7 SSTORE POP PUSH2 0x6C0 JUMP JUMPDEST PUSH1 0x1F NOT DUP5 AND PUSH2 0x66F DUP7 PUSH2 0x448 JUMP JUMPDEST PUSH0 JUMPDEST DUP3 DUP2 LT ISZERO PUSH2 0x696 JUMPI DUP5 DUP10 ADD MLOAD DUP3 SSTORE PUSH1 0x1 DUP3 ADD SWAP2 POP PUSH1 0x20 DUP6 ADD SWAP5 POP PUSH1 0x20 DUP2 ADD SWAP1 POP PUSH2 0x671 JUMP JUMPDEST DUP7 DUP4 LT ISZERO PUSH2 0x6B3 JUMPI DUP5 DUP10 ADD MLOAD PUSH2 0x6AF PUSH1 0x1F DUP10 AND DUP3 PUSH2 0x5C2 JUMP JUMPDEST DUP4 SSTORE POP JUMPDEST PUSH1 0x1 PUSH1 0x2 DUP9 MUL ADD DUP9 SSTORE POP POP POP JUMPDEST POP POP POP POP POP POP JUMP INVALID LOG2 PUSH5 0x6970667358 0x22 SLT KECCAK256 0x2E 0xCF LOG4 DUP3 LOG3 BASEFEE 0x29 0xEB INVALID 0xF7 SWAPN 0x23 TIMESTAMP SWAP8 MULMOD EXTSTATICCALL PUSH0 0xC5 KECCAK256 PUSH16 0xD969DC9D9D31C335C79B35FB64736F6C PUSH4 0x43000822 STOP CALLER "
		},
		"gasEstimates": {
			"creation": {
				"codeDepositCost": "358000",
				"executionCost": "391",
				"totalCost": "358391"
			},
			"external": {
				"addAnimal(string)": "infinite",
				"animalType(uint256)": "infinite"
			}
		},
		"methodIdentifiers": {
			"addAnimal(string)": "5139bfff",
			"animalType(uint256)": "1f6c5b98"
		}
	},
	"abi": [
		{
			"inputs": [
				{
					"internalType": "string",
					"name": "_listOfAnimals",
					"type": "string"
				}
			],
			"name": "addAnimal",
			"outputs": [],
			"stateMutability": "nonpayable",
			"type": "function"
		},
		{
			"inputs": [
				{
					"internalType": "uint256",
					"name": "",
					"type": "uint256"
				}
			],
			"name": "animalType",
			"outputs": [
				{
					"internalType": "string",
					"name": "listOfAnimals",
					"type": "string"
				}
			],
			"stateMutability": "view",
			"type": "function"
		}
	]
}